{
  "_format": "hh-sol-artifact-1",
  "contractName": "Ebay",
  "sourceName": "contracts/Ebay.sol",
  "abi": [
    {
      "inputs": [
        {
          "internalType": "string",
          "name": "_name",
          "type": "string"
        },
        {
          "internalType": "string",
          "name": "_description",
          "type": "string"
        },
        {
          "internalType": "uint256",
          "name": "_min",
          "type": "uint256"
        }
      ],
      "name": "createAuction",
      "outputs": [],
      "stateMutability": "nonpayable",
      "type": "function"
    },
    {
      "inputs": [
        {
          "internalType": "uint256",
          "name": "_auctionId",
          "type": "uint256"
        }
      ],
      "name": "createOffer",
      "outputs": [],
      "stateMutability": "payable",
      "type": "function"
    },
    {
      "inputs": [],
      "name": "getAuctions",
      "outputs": [
        {
          "components": [
            {
              "internalType": "uint256",
              "name": "id",
              "type": "uint256"
            },
            {
              "internalType": "address payable",
              "name": "seller",
              "type": "address"
            },
            {
              "internalType": "string",
              "name": "name",
              "type": "string"
            },
            {
              "internalType": "string",
              "name": "description",
              "type": "string"
            },
            {
              "internalType": "uint256",
              "name": "min",
              "type": "uint256"
            },
            {
              "internalType": "uint256",
              "name": "bestOfferId",
              "type": "uint256"
            },
            {
              "internalType": "uint256[]",
              "name": "offerIds",
              "type": "uint256[]"
            }
          ],
          "internalType": "struct Ebay.Auction[]",
          "name": "",
          "type": "tuple[]"
        }
      ],
      "stateMutability": "view",
      "type": "function"
    },
    {
      "inputs": [
        {
          "internalType": "address",
          "name": "_user",
          "type": "address"
        }
      ],
      "name": "getUserAuctions",
      "outputs": [
        {
          "components": [
            {
              "internalType": "uint256",
              "name": "id",
              "type": "uint256"
            },
            {
              "internalType": "address payable",
              "name": "seller",
              "type": "address"
            },
            {
              "internalType": "string",
              "name": "name",
              "type": "string"
            },
            {
              "internalType": "string",
              "name": "description",
              "type": "string"
            },
            {
              "internalType": "uint256",
              "name": "min",
              "type": "uint256"
            },
            {
              "internalType": "uint256",
              "name": "bestOfferId",
              "type": "uint256"
            },
            {
              "internalType": "uint256[]",
              "name": "offerIds",
              "type": "uint256[]"
            }
          ],
          "internalType": "struct Ebay.Auction[]",
          "name": "",
          "type": "tuple[]"
        }
      ],
      "stateMutability": "view",
      "type": "function"
    },
    {
      "inputs": [
        {
          "internalType": "address",
          "name": "_user",
          "type": "address"
        }
      ],
      "name": "getUserOffers",
      "outputs": [
        {
          "components": [
            {
              "internalType": "uint256",
              "name": "id",
              "type": "uint256"
            },
            {
              "internalType": "uint256",
              "name": "auctionId",
              "type": "uint256"
            },
            {
              "internalType": "address payable",
              "name": "buyer",
              "type": "address"
            },
            {
              "internalType": "uint256",
              "name": "price",
              "type": "uint256"
            }
          ],
          "internalType": "struct Ebay.Offer[]",
          "name": "",
          "type": "tuple[]"
        }
      ],
      "stateMutability": "view",
      "type": "function"
    },
    {
      "inputs": [
        {
          "internalType": "uint256",
          "name": "_auctionId",
          "type": "uint256"
        }
      ],
      "name": "transaction",
      "outputs": [],
      "stateMutability": "nonpayable",
      "type": "function"
    }
  ],
  "bytecode": "0x60806040526001600455600160055534801561001a57600080fd5b50611c708061002a6000396000f3fe6080604052600436106100555760003560e01c806346bd08411461005a578063661d2c2c14610083578063a269993d146100c0578063d7c06919146100dc578063ddf2070614610107578063ff3ad0b414610130575b600080fd5b34801561006657600080fd5b50610081600480360381019061007c9190611103565b61016d565b005b34801561008f57600080fd5b506100aa60048036038101906100a5919061118e565b610343565b6040516100b791906112ef565b60405180910390f35b6100da60048036038101906100d59190611103565b6104e4565b005b3480156100e857600080fd5b506100f1610730565b6040516100fe91906115bc565b60405180910390f35b34801561011357600080fd5b5061012e60048036038101906101299190611643565b6109fb565b005b34801561013c57600080fd5b506101576004803603810190610152919061118e565b610cac565b60405161016491906115bc565b60405180910390f35b8060008111801561017f575060045481105b6101be576040517f08c379a00000000000000000000000000000000000000000000000000000000081526004016101b590611735565b60405180910390fd5b6000806000848152602001908152602001600020905060006001600083600501548152602001908152602001600020905060005b82600601805490508110156102cd57600083600601828154811061021957610218611755565b5b90600052602060002001549050836005015481146102b95760006001600083815260200190815260200160002090508060020160009054906101000a900473ffffffffffffffffffffffffffffffffffffffff1673ffffffffffffffffffffffffffffffffffffffff166108fc82600301549081150290604051600060405180830381858888f193505050501580156102b6573d6000803e3d6000fd5b50505b5080806102c5906117b3565b9150506101f2565b508160010160009054906101000a900473ffffffffffffffffffffffffffffffffffffffff1673ffffffffffffffffffffffffffffffffffffffff166108fc82600301549081150290604051600060405180830381858888f1935050505015801561033c573d6000803e3d6000fd5b5050505050565b60606000600360008473ffffffffffffffffffffffffffffffffffffffff1673ffffffffffffffffffffffffffffffffffffffff16815260200190815260200160002090506000818054905067ffffffffffffffff8111156103a8576103a76117fb565b5b6040519080825280602002602001820160405280156103e157816020015b6103ce610fc8565b8152602001906001900390816103c65790505b50905060005b82805490508110156104d957600083828154811061040857610407611755565b5b906000526020600020015490506001600082815260200190815260200160002060405180608001604052908160008201548152602001600182015481526020016002820160009054906101000a900473ffffffffffffffffffffffffffffffffffffffff1673ffffffffffffffffffffffffffffffffffffffff1673ffffffffffffffffffffffffffffffffffffffff1681526020016003820154815250508383815181106104ba576104b9611755565b5b60200260200101819052505080806104d1906117b3565b9150506103e7565b508092505050919050565b806000811180156104f6575060045481105b610535576040517f08c379a000000000000000000000000000000000000000000000000000000000815260040161052c90611735565b60405180910390fd5b600080600084815260200190815260200160002090506000600160008360050154815260200190815260200160002090508160040154341015801561057d5750806003015434115b6105bc576040517f08c379a00000000000000000000000000000000000000000000000000000000081526004016105b39061189c565b60405180910390fd5b6005548260050181905550816006016005549080600181540180825580915050600190039060005260206000200160009091909190915055604051806080016040528060055481526020018581526020013373ffffffffffffffffffffffffffffffffffffffff16815260200134815250600160006005548152602001908152602001600020600082015181600001556020820151816001015560408201518160020160006101000a81548173ffffffffffffffffffffffffffffffffffffffff021916908373ffffffffffffffffffffffffffffffffffffffff16021790555060608201518160030155905050600360003373ffffffffffffffffffffffffffffffffffffffff1673ffffffffffffffffffffffffffffffffffffffff168152602001908152602001600020600554908060018154018082558091505060019003906000526020600020016000909190919091505560056000815480929190610725906117b3565b919050555050505050565b60606000600160045461074391906118bc565b67ffffffffffffffff81111561075c5761075b6117fb565b5b60405190808252806020026020018201604052801561079557816020015b610782611006565b81526020019060019003908161077a5790505b5090506000600190505b6004548110156109f3576000808281526020019081526020016000206040518060e0016040529081600082015481526020016001820160009054906101000a900473ffffffffffffffffffffffffffffffffffffffff1673ffffffffffffffffffffffffffffffffffffffff1673ffffffffffffffffffffffffffffffffffffffff1681526020016002820180546108369061191f565b80601f01602080910402602001604051908101604052809291908181526020018280546108629061191f565b80156108af5780601f10610884576101008083540402835291602001916108af565b820191906000526020600020905b81548152906001019060200180831161089257829003601f168201915b505050505081526020016003820180546108c89061191f565b80601f01602080910402602001604051908101604052809291908181526020018280546108f49061191f565b80156109415780601f1061091657610100808354040283529160200191610941565b820191906000526020600020905b81548152906001019060200180831161092457829003601f168201915b505050505081526020016004820154815260200160058201548152602001600682018054806020026020016040519081016040528092919081815260200182805480156109ad57602002820191906000526020600020905b815481526020019060010190808311610999575b505050505081525050826001836109c491906118bc565b815181106109d5576109d4611755565b5b602002602001018190525080806109eb906117b3565b91505061079f565b508091505090565b60008111610a3e576040517f08c379a0000000000000000000000000000000000000000000000000000000008152600401610a359061199c565b60405180910390fd5b60008067ffffffffffffffff811115610a5a57610a596117fb565b5b604051908082528060200260200182016040528015610a885781602001602082028036833780820191505090505b5090506040518060e0016040528060045481526020013373ffffffffffffffffffffffffffffffffffffffff16815260200187878080601f016020809104026020016040519081016040528093929190818152602001838380828437600081840152601f19601f82011690508083019250505050505050815260200185858080601f016020809104026020016040519081016040528093929190818152602001838380828437600081840152601f19601f820116905080830192505050505050508152602001838152602001600081526020018281525060008060045481526020019081526020016000206000820151816000015560208201518160010160006101000a81548173ffffffffffffffffffffffffffffffffffffffff021916908373ffffffffffffffffffffffffffffffffffffffff1602179055506040820151816002019081610bd99190611b68565b506060820151816003019081610bef9190611b68565b506080820151816004015560a0820151816005015560c0820151816006019080519060200190610c20929190611059565b50905050600260003373ffffffffffffffffffffffffffffffffffffffff1673ffffffffffffffffffffffffffffffffffffffff168152602001908152602001600020600454908060018154018082558091505060019003906000526020600020016000909190919091505560046000815480929190610c9f906117b3565b9190505550505050505050565b60606000600260008473ffffffffffffffffffffffffffffffffffffffff1673ffffffffffffffffffffffffffffffffffffffff16815260200190815260200160002090506000818054905067ffffffffffffffff811115610d1157610d106117fb565b5b604051908082528060200260200182016040528015610d4a57816020015b610d37611006565b815260200190600190039081610d2f5790505b50905060005b8280549050811015610fbd576000838281548110610d7157610d70611755565b5b906000526020600020015490506000808281526020019081526020016000206040518060e0016040529081600082015481526020016001820160009054906101000a900473ffffffffffffffffffffffffffffffffffffffff1673ffffffffffffffffffffffffffffffffffffffff1673ffffffffffffffffffffffffffffffffffffffff168152602001600282018054610e0b9061191f565b80601f0160208091040260200160405190810160405280929190818152602001828054610e379061191f565b8015610e845780601f10610e5957610100808354040283529160200191610e84565b820191906000526020600020905b815481529060010190602001808311610e6757829003601f168201915b50505050508152602001600382018054610e9d9061191f565b80601f0160208091040260200160405190810160405280929190818152602001828054610ec99061191f565b8015610f165780601f10610eeb57610100808354040283529160200191610f16565b820191906000526020600020905b815481529060010190602001808311610ef957829003601f168201915b50505050508152602001600482015481526020016005820154815260200160068201805480602002602001604051908101604052809291908181526020018280548015610f8257602002820191906000526020600020905b815481526020019060010190808311610f6e575b505050505081525050838381518110610f9e57610f9d611755565b5b6020026020010181905250508080610fb5906117b3565b915050610d50565b508092505050919050565b60405180608001604052806000815260200160008152602001600073ffffffffffffffffffffffffffffffffffffffff168152602001600081525090565b6040518060e0016040528060008152602001600073ffffffffffffffffffffffffffffffffffffffff16815260200160608152602001606081526020016000815260200160008152602001606081525090565b828054828255906000526020600020908101928215611095579160200282015b82811115611094578251825591602001919060010190611079565b5b5090506110a291906110a6565b5090565b5b808211156110bf5760008160009055506001016110a7565b5090565b600080fd5b600080fd5b6000819050919050565b6110e0816110cd565b81146110eb57600080fd5b50565b6000813590506110fd816110d7565b92915050565b600060208284031215611119576111186110c3565b5b6000611127848285016110ee565b91505092915050565b600073ffffffffffffffffffffffffffffffffffffffff82169050919050565b600061115b82611130565b9050919050565b61116b81611150565b811461117657600080fd5b50565b60008135905061118881611162565b92915050565b6000602082840312156111a4576111a36110c3565b5b60006111b284828501611179565b91505092915050565b600081519050919050565b600082825260208201905092915050565b6000819050602082019050919050565b6111f0816110cd565b82525050565b600061120182611130565b9050919050565b611211816111f6565b82525050565b60808201600082015161122d60008501826111e7565b50602082015161124060208501826111e7565b5060408201516112536040850182611208565b50606082015161126660608501826111e7565b50505050565b60006112788383611217565b60808301905092915050565b6000602082019050919050565b600061129c826111bb565b6112a681856111c6565b93506112b1836111d7565b8060005b838110156112e25781516112c9888261126c565b97506112d483611284565b9250506001810190506112b5565b5085935050505092915050565b600060208201905081810360008301526113098184611291565b905092915050565b600081519050919050565b600082825260208201905092915050565b6000819050602082019050919050565b600081519050919050565b600082825260208201905092915050565b60005b8381101561137757808201518184015260208101905061135c565b60008484015250505050565b6000601f19601f8301169050919050565b600061139f8261133d565b6113a98185611348565b93506113b9818560208601611359565b6113c281611383565b840191505092915050565b600081519050919050565b600082825260208201905092915050565b6000819050602082019050919050565b600061140583836111e7565b60208301905092915050565b6000602082019050919050565b6000611429826113cd565b61143381856113d8565b935061143e836113e9565b8060005b8381101561146f57815161145688826113f9565b975061146183611411565b925050600181019050611442565b5085935050505092915050565b600060e08301600083015161149460008601826111e7565b5060208301516114a76020860182611208565b50604083015184820360408601526114bf8282611394565b915050606083015184820360608601526114d98282611394565b91505060808301516114ee60808601826111e7565b5060a083015161150160a08601826111e7565b5060c083015184820360c0860152611519828261141e565b9150508091505092915050565b6000611532838361147c565b905092915050565b6000602082019050919050565b600061155282611311565b61155c818561131c565b93508360208202850161156e8561132d565b8060005b858110156115aa578484038952815161158b8582611526565b94506115968361153a565b925060208a01995050600181019050611572565b50829750879550505050505092915050565b600060208201905081810360008301526115d68184611547565b905092915050565b600080fd5b600080fd5b600080fd5b60008083601f840112611603576116026115de565b5b8235905067ffffffffffffffff8111156116205761161f6115e3565b5b60208301915083600182028301111561163c5761163b6115e8565b5b9250929050565b60008060008060006060868803121561165f5761165e6110c3565b5b600086013567ffffffffffffffff81111561167d5761167c6110c8565b5b611689888289016115ed565b9550955050602086013567ffffffffffffffff8111156116ac576116ab6110c8565b5b6116b8888289016115ed565b935093505060406116cb888289016110ee565b9150509295509295909350565b600082825260208201905092915050565b7f41756374696f6e20646f6573206e6f7420657869737400000000000000000000600082015250565b600061171f6016836116d8565b915061172a826116e9565b602082019050919050565b6000602082019050818103600083015261174e81611712565b9050919050565b7f4e487b7100000000000000000000000000000000000000000000000000000000600052603260045260246000fd5b7f4e487b7100000000000000000000000000000000000000000000000000000000600052601160045260246000fd5b60006117be826110cd565b91507fffffffffffffffffffffffffffffffffffffffffffffffffffffffffffffffff82036117f0576117ef611784565b5b600182019050919050565b7f4e487b7100000000000000000000000000000000000000000000000000000000600052604160045260246000fd5b7f6d73672e76616c7565206d7573742062652067726561746572207468616e207460008201527f6865206d696e696d756d20616e64207468652062657374206f66666572000000602082015250565b6000611886603d836116d8565b91506118918261182a565b604082019050919050565b600060208201905081810360008301526118b581611879565b9050919050565b60006118c7826110cd565b91506118d2836110cd565b92508282039050818111156118ea576118e9611784565b5b92915050565b7f4e487b7100000000000000000000000000000000000000000000000000000000600052602260045260246000fd5b6000600282049050600182168061193757607f821691505b60208210810361194a576119496118f0565b5b50919050565b7f6d696e696d756d206d7573742062652067726561746572207468616e20300000600082015250565b6000611986601e836116d8565b915061199182611950565b602082019050919050565b600060208201905081810360008301526119b581611979565b9050919050565b60008190508160005260206000209050919050565b60006020601f8301049050919050565b600082821b905092915050565b600060088302611a1e7fffffffffffffffffffffffffffffffffffffffffffffffffffffffffffffffff826119e1565b611a2886836119e1565b95508019841693508086168417925050509392505050565b6000819050919050565b6000611a65611a60611a5b846110cd565b611a40565b6110cd565b9050919050565b6000819050919050565b611a7f83611a4a565b611a93611a8b82611a6c565b8484546119ee565b825550505050565b600090565b611aa8611a9b565b611ab3818484611a76565b505050565b5b81811015611ad757611acc600082611aa0565b600181019050611ab9565b5050565b601f821115611b1c57611aed816119bc565b611af6846119d1565b81016020851015611b05578190505b611b19611b11856119d1565b830182611ab8565b50505b505050565b600082821c905092915050565b6000611b3f60001984600802611b21565b1980831691505092915050565b6000611b588383611b2e565b9150826002028217905092915050565b611b718261133d565b67ffffffffffffffff811115611b8a57611b896117fb565b5b611b94825461191f565b611b9f828285611adb565b600060209050601f831160018114611bd25760008415611bc0578287015190505b611bca8582611b4c565b865550611c32565b601f198416611be0866119bc565b60005b82811015611c0857848901518255600182019150602085019450602081019050611be3565b86831015611c255784890151611c21601f891682611b2e565b8355505b6001600288020188555050505b50505050505056fea264697066735822122061bf2a42e7b91d44e853285334aba73ba0577a5dd6f2d60462c38ddf4d50556a64736f6c63430008110033",
  "linkReferences": {},
  "deployedLinkReferences": {}
}